:0400000072EF00F0AB
:100008005E82FACF20F0FBCF21F0E9CF22F0EACFD1
:1000180023F0E1CF24F0E2CF25F0D9CF26F0DACFD4
:1000280027F0F3CF28F0F4CF29F0F6CF2AF0F7CF56
:100038002BF0F8CF2CF0F5CF2DF05EC02EF05FC07E
:100048002FF060C030F061C031F09DB09EA004D0A8
:1000580051EC34F084EC34F0A0B2A1A203D091ECBE
:1000680033F016D09DBA9EAA05D073EC34F02FEC6D
:1000780032F00ED09DB89EA803D0F6EC31F008D02F
:10008800A0BCA1AC03D08DEC34F002D031EC1DF053
:1000980031C061F030C060F02FC05FF02EC05EF05C
:1000A8002DC0F5FF2CC0F8FF2BC0F7FF2AC0F6FFC4
:1000B80029C0F4FF28C0F3FF27C0DAFF26C0D9FF04
:1000C80025C0E2FF24C0E1FF23C0EAFF22C0E9FF08
:1000D80021C0FBFF20C0FAFF5E921100D2EF2BF087
:1000E8000001B46F000E0001B06F0001AE510001B5
:1000F800D8B431EF0AF00001FA51D8B431EF0AF060
:100108000001FD510001EF5DD8A02CD1F1EC28F0E1
:10011800000E0001DE6F000EDD6F000E0001DC6FC7
:10012800000EDB6F000E0001DA6F000ED96F00F0D1
:1001380073EC27F0000E0001B16F6DEC30F063C076
:1001480067F064C068F0EAEC2AF067C0DDF068C0C8
:10015800DEF00001DD5158EC21F00001AF6F000125
:10016800AF510001DD6FDE6BDDC060F0DEC061F015
:10017800000E0001636F030E626F4BEC32F060C03B
:10018800DDF061C0DEF0040E0001666F0001DD5194
:100198001DEC24F048EC30F063C067F064C068F0F0
:1001A800EAEC2AF067C0D9F068C0DAF00001D9514A
:1001B80058EC21F00001AF6F0001AF510001D96F79
:1001C800DA6B080E0001666F0001D9511DEC24F0AE
:1001D80092EC30F063C067F064C068F0EAEC2AF093
:1001E80067C0DBF068C0DCF00001DB5158EC21F09F
:1001F8000001AF6F0001AF510001DB6FDC6BDBC0AA
:1002080060F0DCC061F0000E0001636F030E626FE6
:100218004BEC32F060C0DBF061C0DCF00C0E00018A
:10022800666F0001DB511DEC24F0000E0001EF6F3A
:10023800AEEC33F00E0E00016C6F7C0E00016D6F9A
:10024800000E00016E6F000E00016F6F11EC2EF0B2
:10025800190E00016C6F7E0E00016D6F000E00011B
:100268006E6F010E00016F6F11EC2EF03E0E000153
:100278006C6F7D0E00016D6F000E00016E6F020E37
:1002880000016F6F11EC2EF06D0E00016C6F7E0E89
:1002980000016D6F000E00016E6F030E00016F6F9D
:1002A80011EC2EF0030E0001716F020E0001726F47
:1002B8000001DD51D3EC25F0030E0001716F030E30
:1002C8000001726F0001DB51D3EC25F00B0E000129
:1002D800716F020E0001726F0001D951D3EC25F045
:1002E80057EC34F00001F16F0001F1510001D8A47E
:1002F80002D0050E07D0DF0E0001F16505D0000120
:10030800F151CE0F0001F16F0A0E0001716F010E5D
:100318000001726F0001F151A0EC29F0000E0001FC
:10032800666F0001F1511DEC24F0200E0101BD6F34
:1003380000F0DD0E0001616F7C0E0001626FBA0EE5
:100348000001636F010E0001646F100E0001656FFC
:10035800FAEC24F0070E0001F06F080E0001F36FAD
:1003680031EF0AF00001FB51D8B40AD00001EF2B9D
:100378000F0E0001F36F010E0001AC6F31EF0AF0B0
:10038800000E0001EF6F31EF0AF0FFD70001B45102
:100398000001D8A405D00001AC510001D8B4120066
:1003A800AEEC33F0FE0E00016C6F7A0E00016D6F3B
:1003B800000E00016E6F000E00016F6F11EC2EF041
:1003C800640E00016C6F7B0E00016D6F000E000162
:1003D8006E6F010E00016F6F11EC2EF0600E0001C0
:1003E8006C6F7C0E00016D6F000E00016E6F030EC6
:1003F80000016F6F11EC2EF0060E0001F36F120072
:100408000001B4510001D8B430D0AEEC33F0ED0E99
:1004180000016C6F7A0E00016D6F000E00016E6FA7
:10042800000E00016F6F11EC2EF0DC0E00016C6FF6
:100438007A0E00016D6F000E00016E6F010E000153
:100448006F6F11EC2EF0600E00016C6F7C0E0001D6
:100458006D6F000E00016E6F030E00016F6F11ECDF
:100468002EF00A0E0001F36F12000001AC510001DA
:10047800D8B41200000E0001EF6FAEEC33F0B90EE5
:1004880000016C6F7B0E00016D6F000E00016E6F36
:10049800000E00016F6F11EC2EF0310E00016C6F31
:1004A8007D0E00016D6F000E00016E6F010E0001E0
:1004B8006F6F11EC2EF0860E00016C6F7A0E000142
:1004C8006D6F000E00016E6F030E00016F6F11EC6F
:1004D8002EF0F1EC28F057EC34F00001F16F000138
:1004E800F1510001D8A402D0050E07D0DF0E00019B
:1004F800F16505D00001F151CE0F0001F16F0C0E2E
:100508000001716F010E0001726F0001F151A0EC42
:1005180029F0000E0001666F0001F1511DEC24F076
:10052800200E0101BD6F000E0001DE6F000EDD6FB1
:10053800000E0001DC6F000EDB6F000E0001DA6FA9
:10054800000ED96F00F073EC27F0010E0001616F07
:10055800F40E606FD9EC31F06DEC30F063C067F0E9
:1005680064C068F0EAEC2AF067C0DDF068C0DEF02D
:100578000001DD5158EC21F00001AF6F0001AF51CF
:100588000001DD6FDE6BDDC060F0DEC061F0000EE3
:100598000001636F030E626F4BEC32F060C0DDF058
:1005A80061C0DEF0040E0001666F0001DD511DEC34
:1005B80024F000F000F048EC30F063C067F064C04D
:1005C80068F0EAEC2AF067C0D9F068C0DAF00001F8
:1005D800D95158EC21F00001AF6F0001AF51000173
:1005E800D96FDA6B080E0001666F0001D9511DEC56
:1005F80024F000F0010E0001616FF40E606FD9EC79
:1006080031F092EC30F063C067F064C068F0EAEC57
:100618002AF067C0DBF068C0DCF00001DB5158EC61
:1006280021F00001AF6F0001AF510001DB6FDC6BFF
:10063800DBC060F0DCC061F0000E0001636F030EE8
:10064800626F4BEC32F060C0DBF061C0DCF00C0E86
:100658000001666F0001DB511DEC24F000F0070E6D
:100668000001F36F12000001B4510001D8B411D099
:10067800DD0E0001616F7C0E0001626FBA0E000191
:10068800636F010E0001646F100E0001656FFAECD4
:1006980024F00001AC510001D8B411D0490E00017A
:1006A800616F7E0E0001626FBA0E0001636F010E6A
:1006B8000001646F100E0001656FFAEC24F0000170
:1006C800B4510001D8A405D00001AC510001D8B440
:1006D8001200AEEC33F0310E00016C6F7E0E00019B
:1006E8006D6F000E00016E6F000E00016F6F11EC50
:1006F8002EF0250E00016C6F7E0E00016D6F000E4E
:1007080000016E6F010E00016F6F11EC2EF00C0EE0
:100718000001716F010E0001726F0001F151A0EC30
:1007280029F03E0E00016C6F7D0E00016D6F000E0A
:1007380000016E6F020E00016F6F11EC2EF00D0EAE
:1007480000016C6F7E0E00016D6F000E00016E6F70
:10075800030E00016F6F11EC2EF0030E0001716F94
:10076800020E0001726F0001DD51D3EC25F0030E7B
:100778000001716F030E0001726F0001DB51D3ECB1
:1007880025F00B0E0001716F020E0001726F00015F
:10079800D951D3EC25F0899C080E0001F36F1200A3
:1007A8000001AD510001D8B43BD15A0E0001606F71
:1007B800010E0001616FF80E0001626F7F0E0001EB
:1007C800636FC7EC2FF00001605100016111D8A4DC
:1007D80004D0898C080E0001F36F5A0E0001606F77
:1007E800010E0001616F9A0E0001626F7F0E000119
:1007F800636F000E0001656F060E646F99EC2AF0B6
:100808000001605100016111D8A489D0070E0001D0
:10081800B36F0001B351010D5A0EF324D96E010EC6
:10082800F420DA6EDF500101E76F0001B32B0001FD
:10083800B351010D5A0EF324D96E010EF420DA6E6D
:10084800DF500101E86F0001B32B200E0101E81908
:10085800D8B415D00001B351010D5A0EF324D96E46
:10086800010EF420DA6EDF500101E96F0001B32BAD
:10087800200E0101E919D8B402D00001B32B000EF3
:100888000001B26F3F0E0001B26501D029D000010E
:10089800B351010D5A0EF324D96E010EF420DA6E0D
:1008A8000001B251010D9A0EF324E16E010EF420FD
:1008B800E26EDFCFE7FF0001B251010D9A0EF3247B
:1008C800D96E010EF420DA6EDF50D8B403D00001DF
:1008D800B32B03D0400E0001B26F0001B22BD2D768
:1008E800898E899C310E00016C6F7B0E00016D6F43
:1008F800000E00016E6F020E00016F6F11EC2EF0FA
:10090800A90E00016C6F7A0E00016D6F000E0001D8
:100918006E6F030E00016F6F11EC2EF078D05A0E37
:100928000001606F010E0001616FA10E0001626F8E
:100938007F0E0001636F000E0001656F060E646F85
:1009480099EC2AF00001605100016111D8A410D07F
:10095800899C970E00016C6F7B0E00016D6F000E75
:1009680000016E6F030E00016F6F11EC2EF04FD077
:100978005A0E0001606F010E0001616F930E0001B5
:10098800626F7F0E0001636F000E0001656F060E37
:10099800646F99EC2AF00001605100016111D8A43C
:1009A8000FD0730E00016C6F7A0E00016D6F000E90
:1009B80000016E6F030E00016F6F11EC2EF027D04F
:1009C8005A0E0001606F010E0001616F8C0E00016C
:1009D800626F7F0E0001636F000E0001656F060EE7
:1009E800646F99EC2AF00001605100016111D8A4EC
:1009F8000ED0900E00016C6F7C0E00016D6F000E22
:100A080000016E6F030E00016F6F11EC2EF0FA0EED
:100A18000001AF6F580EE82EFED7AF2FFCD700F0BD
:100A28000001B4510001D8A405D00001AC51000167
:100A3800D8B41200AEEC33F0FE0E00016C6F7A0EE3
:100A480000016D6F000E00016E6F000E00016F6FE8
:100A580011EC2EF0640E00016C6F7B0E00016D6FBF
:100A6800000E00016E6F010E00016F6F11EC2EF089
:100A7800600E00016C6F7C0E00016D6F000E0001AE
:100A88006E6F030E00016F6F11EC2EF0060E000161
:100A9800F36F12000001B4510001D8B430D0AEECAD
:100AA80033F0400E00016C6F7C0E00016D6F000E7C
:100AB80000016E6F000E00016F6F11EC2EF0300E0A
:100AC80000016C6F7C0E00016D6F000E00016E6FEF
:100AD800010E00016F6F11EC2EF0600E00016C6FBB
:100AE8007C0E00016D6F000E00016E6F030E000199
:100AF8006F6F11EC2EF0010E0001F36F1200000170
:100B0800AC510001D8B41200AEEC33F0899E1F0E30
:100B180000016C6F7C0E00016D6F000E00016E6F9E
:100B2800000E00016F6F11EC2EF0BA0E00016C6F11
:100B38007E0E00016D6F000E00016E6F010E000148
:100B48006F6F11EC2EF0E70E00016C6F010E0001C3
:100B58006D6F090E00016E6F010E00016F6F11ECD1
:100B68002EF0360E00016C6F7E0E00016D6F000EC8
:100B780000016E6F020E00016F6F11EC2EF09A0EDD
:100B880000016C6F010E00016D6F060E00016E6FA3
:100B9800020E00016F6F11EC2EF0A40E00016C6FB5
:100BA800010E00016D6F000E00016E6F030E000153
:100BB8006F6F11EC2EF00B0E0001F36F12000001A5
:100BC800B4510001D8A405D00001AC510001D8B43B
:100BD8001200AEEC33F0ED0E00016C6F7A0E0001DE
:100BE8006D6F000E00016E6F000E00016F6F11EC4B
:100BF8002EF0DC0E00016C6F7A0E00016D6F000E96
:100C080000016E6F010E00016F6F11EC2EF0600E87
:100C180000016C6F7C0E00016D6F000E00016E6F9D
:100C2800030E00016F6F11EC2EF00A0E0001F36F36
:100C380012000001B4510001D8B443D0AEEC33F037
:100C4800FD0E00016C6F7B0E00016D6F000E000140
:100C58006E6F000E00016F6F11EC2EF00001FB515A
:100C6800D8B40FD0B00E00016C6F7C0E00016D6F10
:100C7800000E00016E6F020E00016F6F11EC2EF076
:100C88000ED0BF0E00016C6F7C0E00016D6F000E60
:100C980000016E6F020E00016F6F11EC2EF0500E06
:100CA80000016C6F7C0E00016D6F000E00016E6F0D
:100CB800030E00016F6F11EC2EF00C0E0001F36FA4
:100CC80012000001AC510001D8B41200AEEC33F0B0
:100CD800400E00016C6F7C0E00016D6F000E00016C
:100CE8006E6F000E00016F6F11EC2EF0BE0E00014A
:100CF8006C6F7F0E00016D6F000E00016E6F010EAC
:100D080000016F6F11EC2EF0690E00016C6F7F0E01
:100D180000016D6F000E00016E6F020E00016F6F13
:100D280011EC2EF0FB0E00016C6F7F0E00016D6F51
:100D38000A0E00016E6F020E00016F6F11EC2EF0AB
:100D4800A80E00016C6F7F0E00016D6F000E000190
:100D58006E6F030E00016F6F11EC2EF073EC27F02D
:100D6800020E0001F36F12000001B4510001D8B463
:100D7800BCD0AEEC33F0530E00016C6F7B0E00015B
:100D88006D6F000E00016E6F000E00016F6F11ECA9
:100D98002EF0420E00016C6F7B0E00016D6F000E8D
:100DA80000016E6F010E00016F6F11EC2EF0700ED6
:100DB80000016C6F7F0E00016D6F000E00016E6FF9
:100DC800020E00016F6F11EC2EF0C30E00016C6F64
:100DD8007F0E00016D6F0C0E00016E6F020E000198
:100DE8006F6F11EC2EF05AD0970E00016C6F7D0ECC
:100DF80000016D6F070E00016E6F020E00016F6F2C
:100E080011EC2EF060D0E10E00016C6F7F0E000136
:100E18006D6F070E00016E6F020E00016F6F11EC0F
:100E28002EF051D0ED0E00016C6F7F0E00016D6F3A
:100E3800070E00016E6F020E00016F6F11EC2EF0AD
:100E480042D0E50E00016C6F7F0E00016D6F070E3A
:100E580000016E6F020E00016F6F11EC2EF033D09F
:100E6800E90E00016C6F7F0E00016D6F070E000127
:100E78006E6F020E00016F6F11EC2EF024D0F00E91
:100E880000016C6F7F0E00016D6F070E00016E6F21
:100E9800020E00016F6F11EC2EF015D00001FE510B
:100EA800000AD8B4A1D7010AD8B4ADD7030AD8B478
:100EB800B9D7010AD8B4C5D7070AD8B4D1D7010A17
:100EC800D8B4DDD791D7500E00016C6F7C0E0001AD
:100ED8006D6F000E00016E6F030E00016F6F11EC55
:100EE8002EF00D0E0001F36F12000001AC5100014D
:100EF800D8B412000001FB51D8B412D0000E000182
:100F0800FB6FBF0E00016C6F7C0E00016D6F000E51
:100F180000016E6F020E00016F6F11EC2EF01200CF
:100F2800010E0001FB6FB00E00016C6F7C0E00011A
:100F38006D6F000E00016E6F020E00016F6F11ECF5
:100F48002EF012000001B4510001D8A405D0000110
:100F5800AC510001D8B41200AEEC33F0400E0001E1
:100F68006C6F7C0E00016D6F000E00016E6F000E3D
:100F780000016F6F11EC2EF0300E00016C6F7C0ECB
:100F880000016D6F000E00016E6F010E00016F6FA2
:100F980011EC2EF0600E00016C6F7C0E00016D6F7D
:100FA800000E00016E6F030E00016F6F11EC2EF042
:100FB800010E0001F36F12000001B4510001D8B412
:100FC800B1D0AEEC33F0CA0E00016C6F7B0E00019D
:100FD8006D6F000E00016E6F000E00016F6F11EC57
:100FE8002EF03D0E00016C6F7E0E00016D6F000E3D
:100FF80000016E6F020E00016F6F11EC2EF0500EA3
:1010080000016C6F7C0E00016D6F000E00016E6FA9
:10101800030E00016F6F11EC2EF0030E0001F36F49
:1010280069D0C80E00016C6F7F0E00016D6F0A0E4B
:1010380000016E6F020E00016F6F11EC2EF072D07E
:10104800CC0E00016C6F7F0E00016D6F0A0E00015F
:101058006E6F020E00016F6F11EC2EF063D0D00E90
:1010680000016C6F7F0E00016D6F0A0E00016E6F3C
:10107800020E00016F6F11EC2EF054D0D40E000157
:101088006C6F7F0E00016D6F0A0E00016E6F020E0D
:1010980000016F6F11EC2EF045D0D80E00016C6F77
:1010A8007F0E00016D6F0A0E00016E6F020E0001C7
:1010B8006F6F11EC2EF036D0DC0E00016C6F7F0ED6
:1010C80000016D6F0A0E00016E6F020E00016F6F56
:1010D80011EC2EF027D0F40E00016C6F7F0E00018A
:1010E8006D6F0A0E00016E6F020E00016F6F11EC3A
:1010F8002EF018D00001FC51000AD8B492D7010A8A
:10110800D8B49ED7030AD8B4AAD7010AD8B4B6D798
:10111800070AD8B4C2D7010AD8B4CED7030AD8B4BC
:10112800DAD77FD70001AC510001D8B41200050E00
:101138000001FE6103D00001FE2B6FD0000E0001FC
:10114800FE6F6BD0090E0001FD6FDC0E00016C6FA5
:101158007F0E00016D6F070E00016E6F020E000119
:101168006F6F11EC2EF01200120E0001FD6FE00EF1
:1011780000016C6F7F0E00016D6F070E00016E6F2E
:10118800020E00016F6F11EC2EF012001B0E000111
:10119800FD6FEC0E00016C6F7F0E00016D6F070E86
:1011A80000016E6F020E00016F6F11EC2EF012003D
:1011B800360E0001FD6FE40E00016C6F7F0E00011A
:1011C8006D6F070E00016E6F020E00016F6F11EC5C
:1011D8002EF012006C0E0001FD6FE80E00016C6F1E
:1011E8007F0E00016D6F070E00016E6F020E000189
:1011F8006F6F11EC2EF012000001FD69F00E000176
:101208006C6F7F0E00016D6F070E00016E6F020E8E
:1012180000016F6F11EC2EF012000001FE51000A60
:10122800D8B490D7010AD8B49FD7030AD8B4AED798
:10123800010AD8B4BDD7070AD8B4CCD7010AD8B4A4
:10124800DBD780D70001B4510001D8B425D0000104
:10125800FC514EEC19F0AEEC33F0A80E00016C6FA7
:101268007B0E00016D6F000E00016E6F000E000115
:101278006F6F11EC2EF0700E00016C6F7C0E000188
:101288006D6F000E00016E6F030E00016F6F11ECA1
:101298002EF00F0E0001F36F0001AC510001D8B41D
:1012A8001200060E0001FC610DD00001EE05D8A465
:1012B80006D0030E0001FC6502D0060E04D0000122
:1012C800FC2B6DD0000E0001FC6F69D0C80E000128
:1012D8006C6F7F0E00016D6F0A0E00016E6F020EBB
:1012E80000016F6F11EC2EF01200CC0E00016C6F34
:1012F8007F0E00016D6F0A0E00016E6F020E000175
:101308006F6F11EC2EF01200D00E00016C6F7F0E83
:1013180000016D6F0A0E00016E6F020E00016F6F03
:1013280011EC2EF01200D40E00016C6F7F0E00013C
:101338006D6F0A0E00016E6F020E00016F6F11ECE7
:101348002EF01200D80E00016C6F7F0E00016D6F39
:101358000A0E00016E6F020E00016F6F11EC2EF085
:101368001200DC0E00016C6F7F0E00016D6F0A0E1B
:1013780000016E6F020E00016F6F11EC2EF012006B
:10138800F40E00016C6F7F0E00016D6F0A0E0001F4
:101398006E6F020E00016F6F11EC2EF0120000014B
:1013A800FC51000AD8B492D7010AD8B49ED7030AD0
:1013B800D8B4AAD7010AD8B4B6D7070AD8B4C2D7BE
:1013C800010AD8B4CED7030AD8B4DAD77FD7000138
:1013D800AC510001D8B40CD036EC23F00009D8B4D5
:1013E80004D0010E0001B46F03D0090E0001F06FA4
:1013F8000001B4510001D8B41200AEEC33F0FE0E77
:1014080000016C6F7A0E00016D6F000E00016E6FA7
:10141800000E00016F6F11EC2EF0640E00016C6F6E
:101428007B0E00016D6F000E00016E6F010E000152
:101438006F6F11EC2EF0600E00016C6F7C0E0001D6
:101448006D6F000E00016E6F030E00016F6F11ECDF
:101458002EF0060E0001F36F12000001F351000A8E
:10146800D8B4CAEF01F0010AD8B41DEF06F0030A98
:10147800D8B468D5010AD8B4E5D6050AD8B404EFBB
:1014880002F0010AD8B437EF03F00F0AD8B4D4EF4A
:1014980003F0020AD8B44EEF05F0010AD8B4E3EF1E
:1014A80005F0070AD8B460D4010AD8B485D5020A71
:1014B800D8B48DD7C9EF01F00001766F000E000196
:1014C800756F08D3FFD7EC0E0001616F7E0E000127
:1014D800626FB3EC32F091D1000172510001D8B4BF
:1014E80003D00A0E0001F46F000176510001D8B450
:1014F80015D35A0E0001606F010E0001616FB40E22
:101508000001626F7F0E0001636F000E0001656FBE
:10151800040E646F99EC2AF000016051000161111A
:10152800D8A433D0000E0001EE6FAEEC33F0200EDD
:1015380000016C6F7B0E00016D6F000E00016E6F75
:10154800000E00016F6F11EC2EF0750E00016C6F2C
:101558007B0E00016D6F000E00016E6F020E000120
:101568006F6F11EC2EF0CB0E00016C6F7A0E00013C
:101578006D6F000E00016E6F030E00016F6F11ECAE
:101588002EF04BD00001F46FC9D25A0E0001606FE3
:10159800010E0001616FB90E0001626F7F0E00013C
:1015A800636F000E0001656F040E646F99EC2AF0FA
:1015B8000001605100016111D8A431D0010E000171
:1015C800EE6FAEEC33F0200E00016C6F7B0E000165
:1015D8006D6F000E00016E6F000E00016F6F11EC51
:1015E8002EF0750E00016C6F7B0E00016D6F000E02
:1015F80000016E6F020E00016F6F11EC2EF0CB0E22
:1016080000016C6F7A0E00016D6F000E00016E6FA5
:10161800030E00016F6F11EC2EF0020EB3D7EC0E23
:101628000001616F7E0E0001626FB3EC32F0000EB4
:101638000001616F190E606FD9EC31F0E4D100013F
:1016480071510001D8B41ED0980E00016C6F7A0E4B
:1016580000016D6F000E00016E6F030E00016F6FC9
:1016680011EC2EF0010E0001616FF40E606FD9ECE1
:1016780031F0B30E0001616F7D0E0001626FB3ECB3
:1016880032F079D0000172510001D8B447D2BA0EB5
:1016980000016C6F7A0E00016D6F000E00016E6F15
:1016A800030E00016F6F11EC2EF0010E0001616F47
:1016B800F40E606FD9EC31F0EB0E0001616F7C0E17
:1016C8000001626FB3EC32F088D10001765100015D
:1016D800D8B424D25A0E0001606F010E0001616F68
:1016E800F80E0001626F7F0E0001636FC7EC2FF0E8
:1016F8000001605100016111D8A402D0040E42D744
:101708005A0E0001606F010E0001616F070E0001A3
:10171800626F7D0E0001636FC7EC2FF0000160510E
:1017280000016111D8A41FD0AEEC33F0A40E000163
:101738006C6F7E0E00016D6F000E00016E6F000E63
:1017480000016F6F11EC2EF0090E00016C6F7F0E17
:1017580000016D6F000E00016E6F010E00016F6FCA
:1017680011EC2EF099D0B30E0001616F7D0E0001CF
:10177800626FB3EC32F0030E05D700017651000119
:10178800D8B4CCD15A0E0001606F010E0001616F10
:10179800120E0001626F7F0E0001636FC7EC2FF01D
:1017A8000001605100016111D8A41FD0AEEC33F0E4
:1017B800C40E00016C6F7E0E00016D6F000E0001FB
:1017C8006E6F000E00016F6F11EC2EF08E0E00018F
:1017D8006C6F7E0E00016D6F000E00016E6F010EC2
:1017E80000016F6F11EC2EF0BCD0E20E0001616FAA
:1017F8007E0E0001626FB3EC32F0010EC3D6000119
:1018080076510001D8B48AD15A0E0001606F010EDA
:101818000001616FF80E0001626F7F0E0001636FB7
:10182800C7EC2FF00001605100016111D8A402D06B
:10183800060EA8D65A0E0001606F010E0001616FF6
:10184800070E0001626F7D0E0001636FC7EC2FF079
:101858000001605100016111D8A420D0AEEC33F032
:10186800A40E00016C6F7E0E00016D6F000E00016A
:101878006E6F000E00016F6F11EC2EF0090E000163
:101888006C6F7F0E00016D6F000E00016E6F010E10
:1018980000016F6F11EC2EF0090E74D65A0E00017C
:1018A800606F010E0001616FF90E0001626F7C0E1E
:1018B8000001636FC7EC2FF0000160510001611156
:1018C800D8A409D0EB0E0001616F7C0E0001626F95
:1018D800B3EC32F082D05A0E0001606F010E0001A5
:1018E800616F830E0001626F7E0E0001636FC7ECAB
:1018F8002FF083D0000176510001D8B40FD15A0ED1
:101908000001606F010E0001616F120E0001626F2D
:101918007F0E0001636FC7EC2FF0000160510001DA
:101928006111D8A420D0AEEC33F0780E00016C6FB2
:101938007E0E00016D6F000E00016E6F000E00013B
:101948006F6F11EC2EF08E0E00016C6F7E0E000191
:101958006D6F000E00016E6F010E00016F6F11ECCC
:101968002EF0070E0FD65A0E0001606F010E00010F
:10197800616F850E0001626F7F0E0001636FC7EC17
:101988002FF00001605100016111D8A428D0AEECFD
:1019980033F0D80E00016C6F7E0E00016D6F010EE2
:1019A80000016E6F000E00016F6F11EC2EF07E0EBD
:1019B80000016C6F7F0E00016D6F020E00016E6FEB
:1019C800010E00016F6F11EC2EF0EB0E0001616F3C
:1019D8007C0E0001626FB3EC32F0050ED3D55A0EBF
:1019E8000001606F010E0001616F830E0001626FDC
:1019F8007E0E0001636FC7EC2FF0000160510001FB
:101A08006111D8A48BD0000EBDD5990E0001616F6D
:101A18007E0E0001626FB3EC32F021D000017651E6
:101A28000001D8B47BD05A0E0001606F010E00018E
:101A3800616FF90E0001626F7C0E0001636FC7ECE5
:101A48002FF00001605100016111D8A40AD0990E4D
:101A58000001616F7E0E0001626FB3EC32F0080E78
:101A680091D501015A51D00F0001746F74C0FCF078
:101A7800010E0001756F52D0000172510001D8B4F7
:101A88004DD00A0E7FD5000E0001606F000E63EC8A
:101A980031F081B202D081A0FCD7FA0E0001736F39
:101AA800580EE82EFED7732FFCD700F0FA0E00016F
:101AB800736F580EE82EFED7732FFCD700F0FA0E7E
:101AC8000001736F580EE82EFED7732FFCD700F075
:101AD800FF0024D00001F451000AD8B4F4D4010A5C
:101AE800D8B4FAD4030AD8B4AAD5010AD8B4EDD523
:101AF800070AD8B442D6010AD8B481D6030AD8B4A2
:101B0800F9D6010AD8B481D70F0AD8B487D7010A01
:101B1800D8B4B2D7030AD8B4B6D7D4D40001755113
:101B2800120000016351800B0001706F00016351C6
:101B380063250001726F000162AF02D0000172815B
:101B4800000172510001D8B412D000017229D8A442
:101B580009D0000E0001606F000E616F000E626F09
:101B6800000E636F0001628F000E000108D0000EA6
:101B78000001606F000E616F000E626F000E636FF0
:101B880000016751800B0001716F00017051000165
:101B98007119D8B402D00001708D00016751672512
:101BA8000001716F000166AF02D000017181000170
:101BB80071510001D8B412D000017129D8A409D0FC
:101BC800000E0001646F000E656F000E666F000E58
:101BD800676F0001668F000E000108D0000E00013B
:101BE800646F000E656F000E666F000E676F000170
:101BF80072510001715DD8B024D0000170AD03D0DE
:101C0800800E0001701B72C073F071C072F073C057
:101C180071F060C073F064C060F073C064F061C0BC
:101C280073F065C061F073C065F062C073F066C0A0
:101C380062F073C066F063C073F067C063F073C08E
:101C480067F0000E0001736F000172510001686FA8
:101C5800696B0001681F691F684B692B000171518E
:101C680000016A6F6B6B0001685100016A2700016F
:101C7800695100016B2300016BBF3DD000016B511E
:101C880005E11A0E00016A5DD8A035D00001605147
:101C9800000161110001621100016311D8B402D082
:101CA800010E01D0000E0001736F000E0001606F7D
:101CB800000E616F000E626F000E636F71C072F0EC
:101CC80020D0000173A107D00001D8907331010919
:101CD8000001736F03D00001D8907333000160A135
:101CE80002D00001738F00016335633362336133BF
:101CF80060330001722B000171510001725DD8A0A0
:101D0800E0D7000170BD3FD0000172510001D8A496
:101D18000AD0000E0001606F000E616F000E626F46
:101D2800000E636F1200000164510001602700017A
:101D38006551000161230001665100016223000121
:101D4800675100016323000163A1CCD0000173A196
:101D580009D00001D89073330001735101090001C3
:101D6800736F03D00001D8907333000160A102D0D3
:101D78000001738F0001633563336233613360336D
:101D88000001722BAFD0000164510001605D0001B9
:101D98006551000161590001665100016259000155
:101DA8006351800A0001686F00016751800A0001D1
:101DB8006859D8B050D060C068F061C069F062C09E
:101DC8006AF063C06BF00001681F691F6A1F6B1F10
:101DD800682B000E69236A236B23000164510001FC
:101DE800682500016C6F000165510001692100013F
:101DF8006D6F0001665100016A2100016E6F0001DC
:101E0800675100016B2100016F6FFF0E00016C2507
:101E18000001606FFF0E00016D210001616FFF0E70
:101E280000016E210001626FFF0E00016F210001A9
:101E3800636F800E0001701B0001736D0001735108
:101E48000001D8A418D0010E00016027000E6123FC
:101E58006223632310D0000164510001605F000118
:101E680065510001615B000166510001625B000180
:101E780067510001635B00016051000161110001BD
:101E8800621100016311D8A42AD000017351000126
:101E9800D8A425D0000E0001606F000E616F000EFF
:101EA800626F000E636F12000001D89060376137CF
:101EB80062376337000173AF02D00001608100010F
:101EC80073A103D0D880000102D00001D8907337E5
:101ED800000172510001D8B402D00001720700015C
:101EE80062AFE2D7000E0001716F000173AF0DD031
:101EF80073C068F07F0E00016817D8A403D00001F2
:101F080060A103D0010E0001716F00017151000141
:101F1800D8B426D0010E00016027000E6123622389
:101F28006323000163A11CD060C068F061C069F040
:101F380062C06AF063C06BF000016B356B336A33C3
:101F48006933683368C060F069C061F06AC062F0E4
:101F58006BC063F000017229D8B402D00001722B63
:101F680000017229D8B405D0000172510001D8A42B
:101F780011D0000E0001606F000E616F000E626FDD
:101F8800000E636F000172510001D8A403D0000E47
:101F98000001706F000172A103D00001628F02D0AE
:101FA8000001629F0001D89072310001636F000147
:101FB80070AF02D00001638F60C060F061C061F053
:101FC80062C062F063C063F0120000017751800BB9
:101FD8000001806F0001775177250001866F0001AD
:101FE80076AF02D000018681000186510001D8B485
:101FF80010D000018629D8A409D0000E0001746F02
:10200800000E756F000E766F000E776F0001768FE9
:1020180009D0000E0001746F000E756F000E766F08
:10202800000E776F00017B51800B0001801B0001BF
:102038007B517B250001856F00017AAF02D000013A
:102048008581000185510001D8B410D0000185298F
:10205800D8A409D0000E0001786F000E796F000E29
:102068007A6F000E7B6F00017A8F09D0000E000195
:10207800786F000E796F000E7A6F000E7B6F00018B
:1020880085510001D8B405D0000186510001D8A4BB
:102098000AD0000E0001746F000E756F000E766F87
:1020A800000E776F120000017A5100017403F3CF1C
:1020B8008BF0F4CF8CF000018B510001816F826BA3
:1020C800836B846B00018C510001876F886B896B6F
:1020D8008A6B0001795100017503F3CF8BF0F4CFBF
:1020E8008CF000018B5100018127000E822383238D
:1020F800842300018C5100018727000E882389233F
:102108008A230001785100017603F3CF8BF0F4CFD6
:102118008CF000018B5100018127000E822383235C
:10212800842300018C5100018727000E882389230E
:102138008A2383C084F082C083F081C082F00001CA
:10214800816B0001785100017503F3CF8BF0F4CF58
:102158008CF000018B510001812700018C51000196
:102168008223000E00018323000E00018423000156
:10217800795100017403F3CF8BF0F4CF8CF0000198
:102188008B510001812700018C5100018223000E30
:1021980000018323000E0001842383C084F082C0E1
:1021A80083F081C082F00001816B00017851000149
:1021B8007403F3CF8BF0F4CF8CF000018B51000146
:1021C800812700018C5100018223000E0001832326
:1021D800000E0001842300017A5100017503F3CF3A
:1021E8008BF0F4CF8CF000018B51000187270001A0
:1021F8008C5100018823000E00018923000E000184
:102208008A230001795100017603F3CF8BF0F4CFD4
:102218008CF000018B510001872700018C510001CF
:102228008823000E00018923000E00018A23000183
:102238007A5100017603F3CF8BF0F4CF8CF00001D4
:102248008B5100017C6F00018C5100017D6F0001F2
:102258007E6B00017F6B7EC07FF07DC07EF07CC00E
:102268007DF000017C6B00017C5100018727000193
:102278007D510001882300017E510001892300015E
:102288007F5100018A2381C07CF082C07DF083C029
:102298007EF084C07FF0190E06D00001D8907F33FD
:1022A8007E337D337C33E82EF8D700017C51000162
:1022B800872700017D510001882300017E5100011C
:1022C800892300017F5100018A2383C084F082C0E2
:1022D80083F081C082F00001816B0001855186C0C6
:1022E8007CF000017D6B00017C27000E7D23820EAF
:1022F80000017C2500018B6FFF0E00017D2100018C
:102308008C6F15D00001D8908737883789378A377E
:10231800000184AF02D0000187810001D890813785
:1023280082378337843700018B07D8A08C070001D8
:1023380089AFE8D7000E0001856F000184AF24D073
:10234800FF0E0001811500017C6FFF0E0001821550
:1023580000017D6FFF0E0001831500017E6F7F0E67
:102368000001841500017F6F00017C5100017D117F
:1023780000017E1100017F11D8A403D0000187A1BC
:1023880003D0010E0001856F000185510001D8B40A
:1023980023D0010E00018727000E882389238A2372
:1023A80000018AA119D087C07CF088C07DF089C05F
:1023B8007EF08AC07FF000017F357F337E337D3326
:1023C8007C337CC087F07DC088F07EC089F07FC0F8
:1023D8008AF000018B4B8C2B00018CBF10D00001C0
:1023E8008C5104E100018B29D8A009D0000E00010E
:1023F800876F000E886F800E896F7F0E2BD00001CB
:102408008CBF07D000018C5111E100018B05D8B0B9
:102418000DD0000E0001876F000E886F000E896FC7
:10242800000E8A6F000E0001806F15D08BC086F0F9
:10243800FF0E00018717FF0E88177F0E8917000E01
:102448008A17000186A102D00001898F0001D89067
:10245800863100018A6F0001805100018A1387C00C
:1024680074F088C075F089C076F08AC077F01200E1
:1024780000019051800B0001996F00019051902547
:102488000001A46F00018FAF02D00001A4810001F8
:10249800A4510001D8B412D00001A429D8A409D0AD
:1024A800000E00018D6F000E8E6F000E8F6F000EF4
:1024B800906F00018F8F000E000108D0000E000100
:1024C8008D6F000E8E6F000E8F6F000E906F0001E3
:1024D8009451800B0001991B00019451942500012F
:1024E800A56F000193AF02D00001A5810001A5519D
:1024F8000001D8B412D00001A529D8A409D0000E33
:102508000001916F000E926F000E936F000E946F92
:102518000001938F000E000108D0000E0001916F9A
:10252800000E926F000E936F000E946F0001915190
:10253800000192110001931100019411D8A417D041
:10254800000E00018D6F000E8E6F000E8F6F000E53
:10255800906F0001800E8F137F0E90138DC08DF049
:102568008EC08EF08FC08FF090C090F012000001E6
:10257800A4510001D8A412D0000E00018D6F000EE6
:102588008E6F000E8F6F000E906F8DC08DF08EC015
:102598008EF08FC08FF090C090F012000001A5510E
:1025A8000001956F966B0001951F961F954B962B12
:1025B8000001A4510001976F986B0001955100012B
:1025C800972700019651000198237F0E0001972557
:1025D80000019E6F000E0001982100019F6F8DC0C1
:1025E8009AF08EC09BF08FC09CF090C09DF0000EBA
:1025F80000018D6F000E8E6F000E8F6F000E906FB2
:10260800000E0001A06F000EA16F000EA26F000E59
:10261800A36F000E0001A56F42D00001A551000173
:10262800D8B417D00001D8909A379B379C379D377C
:102638000001D8908D378E378F3790370001A3AFC0
:1026480002D000018D810001D890A037A137A237B0
:10265800A3370001915100019A5D000192510001D8
:102668009B590001935100019C59000194510001AC
:102678009D59D8A012D00001A38D000191510001ED
:102688009A5F0001925100019B5B00019351000188
:102698009C5B0001945100019D5B0001A52B190E64
:1026A8000001A565BAD700019A5100019B110001EC
:1026B8009C1100019D11D8B418D00001A08115D03B
:1026C8000001D8908D378E378F3790370001A3AF30
:1026D80002D000018D810001D890A037A137A23720
:1026E800A33700019E07D8A09F0700018FAFE8D746
:1026F800000E0001A56F0001A3AF24D0FF0E00015A
:10270800A0150001956FFF0E0001A1150001966F3D
:10271800FF0E0001A2150001976F7F0E0001A3159F
:102728000001986F00019551000196110001971161
:1027380000019811D8A403D000018DA103D0010E87
:102748000001A56F0001A5510001D8B423D0010EE6
:1027580000018D27000E8E238F239023000190A166
:1027680019D08DC095F08EC096F08FC097F090C0AC
:1027780098F000019835983397339633953395C080
:102788008DF096C08EF097C08FF098C090F0000141
:102798009E4B9F2B00019FBF14D000019F5104E165
:1027A80000019E29D8A00DD0000E00019F6F9E69E0
:1027B800000E00018D6F000E8E6F000E8F6F000EE1
:1027C800906F00019FBF07D000019F5115E10001E4
:1027D8009E05D8B011D0000E00019F6F000E9E6FAD
:1027E800000E00018D6F000E8E6F000E8F6F000EB1
:1027F800906F000E0001996F9EC0A4F00001A4A183
:1028080003D000018F8F02D000018F9F0001D89064
:10281800A4310001906F00019951000190138DC0FF
:102828008DF08EC08EF08FC08FF090C090F01200A7
:10283800000E0001B66F000E0001B76F000E000118
:10284800B86F000E0001BA6F030E0001B96F80A0C7
:1028580009D07BEC34F00009D8A407D0040E00019D
:10286800FF6F03D0000E5CEC34F00001F8A108D033
:102878006FEC34F057EC1BF00001F8514BEC33F0DF
:1028880067EC2DF00001B96F0001B905D8A407D095
:10289800000E0001F06F010E0001B76F0BD0020EA1
:1028A8000001B919D8A406D0000E0001F06F010E7E
:1028B8000001B86F28EC2DF00009D8B402D0010E41
:1028C80001D0000E0001BA6F020E0001F319D8A45E
:1028D8008FD00101575105E1640E0101565DD8A062
:1028E80087D000F06DEC30F063C067F064C068F02A
:1028F800EAEC2AF067C0DDF068C0DEF00001DD51C7
:1029080058EC21F00001B56F0001B5510001DD6FF1
:10291800DE6BDDC060F0DEC061F0000E0001636FA9
:10292800030E626F4BEC32F060C0DDF061C0DEF088
:10293800060E0001716F010E0001726F0001DD517A
:10294800D3EC25F048EC30F063C067F064C068F061
:10295800EAEC2AF067C0D9F068C0DAF00001D95172
:1029680058EC21F00001B56F0001B5510001D96F95
:10297800DA6B060E0001716F020E0001726F000122
:10298800D951D3EC25F092EC30F063C067F064C005
:1029980068F0EAEC2AF067C0DBF068C0DCF0000100
:1029A800DB5158EC21F00001B56F0001B551000171
:1029B800DB6FDC6BDBC060F0DCC061F0000E000197
:1029C800636F030E626F4BEC32F060C0DBF061C0E6
:1029D800DCF0060E0001716F030E0001726F00013A
:1029E800DB51D3EC25F0000E0101576F000E566F36
:1029F8000001F051D8B48AD0090E0001F06586D0E4
:102A08000001FB51D8B482D0010E0001B66F000E50
:102A18000001F06F7BD0FFD7AEEC33F0CE0E000193
:102A28006C6F7E0E00016D6F010E00016E6F000E5F
:102A380000016F6F11EC2EF0240E00016C6F7F0EF9
:102A480000016D6F020E00016E6F010E00016F6FC5
:102A580011EC2EF0860E00016C6F7B0E00016D6F7D
:102A6800000E00016E6F030E00016F6F11EC2EF067
:102A7800000E0001F46F020E3BD0B7C071F0B8C071
:102A880072F00001BA5160EC0AF00009D8B44CD0D9
:102A9800AEEC33F0DB0E00016C6F7B0E00016D6F46
:102AA800000E00016E6F000E00016F6F11EC2EF02A
:102AB800EC0E00016C6F7B0E00016D6F000E0001C3
:102AC8006E6F020E00016F6F11EC2EF00F0E0001F9
:102AD8006C6F7B0E00016D6F000E00016E6F030EB0
:102AE80000016F6F11EC2EF0000E0001F36F030E62
:102AF8000001FF6F19D0B8C0ACF0BAC0ADF0B6C0D5
:102B0800AEF00001B75174EC00F00ED00001FF5197
:102B1800010AD8B481D7030AD8B4AFD7010AD8B408
:102B2800EAD7070AD8A477D70001FF511200040199
:102B38003205D8A411D0040130511F0B0009D8A4C4
:102B48000BD00001C68F030E04013119D8A402D09E
:102B5800010E01D0000E496E04013251D8A41200B2
:102B6800040130511F0B020AD8A412000401345189
:102B78000F0B0009D8B41200040134510F0B166E64
:102B8800030E16601200200E0001ED19D8A41200E1
:102B98000001C68F040134BF1BD0040134510F0B50
:102BA800166E1650020D400EF324D96E010EF42055
:102BB800DA6EDECF1AF0DDCF1BF0040134510F0BB3
:102BC800166E1650010DCF0EF324D96E000E1AD0D2
:102BD800040134510F0B166E1650020DC90EF32462
:102BE800D96E000EF420DA6EDECF1AF0DDCF1BF0BE
:102BF800040134510F0B166E1650010DD20EF3243A
:102C0800D96E000EF420DA6EDF50196E19B002D0BA
:102C18001A9401D01A84040134BF0BD00401345132
:102C28000F0B166E1650020D400EF324D96E010ECE
:102C38000AD0040134510F0B166E1650020DC90E3E
:102C4800F324D96E000EF420DA6E1AC0DEFF1BC022
:102C5800DDFF030E04013119D8A42FD01AC0D9FF03
:102C68001BC0DAFFDFAE1CD0040134BF0BD0040157
:102C780034510F0B166E1650010DCF0EF324D96E7A
:102C8800000E0AD0040134510F0B166E1650010DB8
:102C9800D20EF324D96E000EF420DA6E0001DF8222
:102CA8001AC0D9FF1BC0DAFF000EDB841AC0D9FF97
:102CB8001BC0DAFF000EDB8E1200040E1A1A1AC0AF
:102CC800D9FF1BC0DAFFDFAE1BD01AC0D9FF1BC06B
:102CD800DAFF7F0EDF161AC0D9FF1BC0DAFF000E1D
:102CE800DB8C000E0F6E050E0E6E1AC010F01BC0A6
:102CF80011F0000E136E020E126E3EEC2FF006D08D
:102D08001AC0D9FF1BC0DAFF000EDB8C040E1A1A9A
:102D180019B206D01AC0D9FF1BC0DAFFDFAE31D016
:102D2800040134BF0BD0040134510F0B166E16503A
:102D3800010DCF0EF324D96E000E0AD004013451D0
:102D48000F0B166E1650010DD20EF324D96E000E1D
:102D5800F420DA6E0001DF921AC0D9FF1BC0DAFF37
:102D68003B0EDF16000E0F6E050E0E6E1AC010F029
:102D78001BC011F0000E136E020E126E3EEC2FF007
:102D880006D01AC0D9FF1BC0DAFF3B0EDF160401BC
:102D980034510F0B166E1650010D6A0EF324176E80
:102DA8000F0EF420186E17C0D9FF18C0DAFFFE0EF8
:102DB800DF1612000001686F000168510001D8B4E5
:102DC8001ED0000163AF1BD060C064F061C065F025
:102DD80062C066F063C067F00001641F651F661F6C
:102DE800671F642B000E65236623672364C06AF09F
:102DF80065C06BF066C06CF067C06DF008D060C04D
:102E08006AF061C06BF062C06CF063C06DF00001E5
:102E18006051000161110001621100016311D8A421
:102E28000AD0000E0001606F000E616F000E626F25
:102E3800000E636F1200960E0001696F08D0000142
:102E4800692B0001D8906D336C336B336A33000EF5
:102E580000016A150001646F000E00016B15000186
:102E6800656F000E00016C150001666FFE0E000113
:102E78006D150001676F00016451000165110001C3
:102E8800661100016711D8B410D0D9D70001692B99
:102E9800010E00016A27000E6B236C236D230001CD
:102EA800D8906D336C336B336A33000E00016A15AA
:102EB8000001646F000E00016B150001656F000EC4
:102EC80000016C150001666FFF0E00016D15000111
:102ED800676F00016451000165110001661100016E
:102EE8006711D8B409D0D2D7000169070001D8907A
:102EF8006A376B376C376D3700016CBF04D0020E30
:102F080000016961F1D7000169B109D0FF0E000124
:102F18006A17FF0E6B177F0E6C17FF0E6D170001F7
:102F2800D890693369C064F00001656B666B676BA4
:102F380064C067F00001666B656B646B00016451E7
:102F480000016A130001655100016B13000166510D
:102F580000016C130001675100016D1300016851F5
:102F68000001D8B405D0000163AF02D000016D8F15
:102F78006AC060F06BC061F06CC062F06DC063F055
:102F8800120073EC27F0AEEC33F0480E00016C6FC2
:102F98007F0E00016D6F000E00016E6F000E0001C4
:102FA8006F6F11EC2EF0AE0E00016C6F7F0E0001FA
:102FB8006D6F000E00016E6F010E00016F6F11EC56
:102FC8002EF0590E00016C6F7F0E00016D6F000E20
:102FD80000016E6F020E00016F6F11EC2EF00E0EE5
:102FE8000001626F020E0001636F430EF4EC29F0DA
:102FF800770E00016C6F7F0E00016D6F000E0001EF
:103008006E6F030E00016F6F11EC2EF048EC30F07C
:1030180063C067F064C068F0EAEC2AF067C0D9F0D2
:1030280068C0DAF00001D95158EC21F00001AC6F0A
:103038000001AC510001D96FDA6B0A0E0001716F03
:10304800020E0001726F0001D951D3EC25F000F097
:103058006DEC30F063C067F064C068F0EAEC2AF009
:1030680067C0DDF068C0DEF00001DD5158EC21F0EA
:103078000001AC6F0001AC510001DD6FDE6BDDC0FB
:1030880060F0DEC061F0000E0001636F030E626F36
:103098004BEC32F060C0DDF061C0DEF00A0E0001DA
:1030A800716F010E0001726F0001DD51D3EC25F044
:1030B80000F092EC30F063C067F064C068F0EAECAE
:1030C8002AF067C0DBF068C0DCF00001DB5158EC87
:1030D80021F00001AC6F0001AC510001DB6FDC6B2B
:1030E800DBC060F0DCC061F0000E0001636F030E0E
:1030F800626F4BEC32F060C0DBF061C0DCF00A0EAE
:103108000001716F030E0001726F0001DB51D3ECF7
:1031180025F01200A39432503310D8B412D032C024
:10312800D9FF33C0DAFFDFAE04D00001676B672B2D
:1031380002D00001676B000167510001686F696B7D
:1031480005D0000E0001696F000E686F000168511C
:1031580000016911D8B402D0A3841200030E000143
:10316800EC19D8A403D0000E0001EC6F0001EC515B
:10317800D8A402D0A3841200020E0001EC19D8A42E
:1031880017D0010E0001606F000E0001616F000E84
:103198000001626F000E0001636F020E67EC25F0FC
:1031A80060C032F061C033F0030E0001EC6F70D0E4
:1031B8000001EC05D8A46CD0400E0001DF6504D0F6
:1031C800400E00016B6F02D0DFC06BF000016B5145
:1031D80000080001DF250001DF6F000E01014E6FBE
:1031E800050E01014F6F6BC06AF04050D8B413D080
:1031F8002AD051C1D9FF52C1DAFF4EC1E1FF4FC1F8
:10320800E2FFDFCFE7FF01014E4B4F2B0101514B8E
:10321800522B00016A0700016A510001D8B418D086
:10322800E8D751C1D9FF52C1DAFF4EC1E1FF4FC102
:10323800E2FFDFCFE7FF01014E4B4F2B0101514B5E
:10324800522B00016A0700016A510001D8A4E9D78E
:103258000001DF51D8A40AD0400E00016B19D8A490
:1032680002D0020E01D0030E0001EC6F010E000126
:10327800606F000E0001616F050E0001626F6BC088
:1032880063F0020E67EC25F060C032F061C033F0E5
:10329800A38412000001646F080E00016419D8B4F9
:1032A80075D0800E0001616F7C0E0001626FB3EC77
:1032B80032F0FA0E0001636F580EE82EFED7632F26
:1032C800FCD700F0FA0E0001636F580EE82EFED707
:1032D800632FFCD700F0FA0E0001636F580EE82E3A
:1032E800FED7632FFCD700F051D04B0E0001616F61
:1032F8007D0E0001626FB3EC32F065D0580E00010C
:10330800616F7D0E0001626FB3EC32F05CD0650E28
:103318000001616F7D0E0001626FB3EC32F053D093
:10332800720E0001616F7D0E0001626FB3EC32F026
:103338004AD07F0E0001616F7D0E0001626FB3EC11
:1033480032F041D08C0E0001616F7D0E0001626F7A
:10335800B3EC32F038D0990E0001616F7D0E000198
:10336800626FB3EC32F02FD0A60E0001616F7D0EB4
:103378000001626FB3EC32F026D0CE0E0001616F0F
:103388007C0E0001626FB3EC32F01DD00001645175
:10339800000AD8B4AAD7010AD8B4B0D7030AD8B457
:1033A800B6D7010AD8B4BCD7070AD8B4C2D7010A1D
:1033B800D8B4C8D7030AD8B4CED7010AD8B4D4D75A
:1033C8000F0AD8B4DAD7FA0E0001636F580EE82E48
:1033D800FED7632FFCD700F0FA0E0001636F580E7A
:1033E800E82EFED7632FFCD700F0FA0E0001636FBA
:1033F800580EE82EFED7632FFCD700F01B0E0001F5
:10340800616F7F0E0001626FB3EC32F01200A3947B
:10341800000E676E000E656E000E6A6E6B0E000180
:10342800606F0F0E0001616F000E0001636F000EE8
:10343800626F000E0001656F020E646F66EC32F079
:10344800160E626E9F0E666E7B0E646E000E000195
:10345800686F0B0E0001686501D010D0000168513B
:10346800040D000EF324D96E040EF420DA6EDE6A21
:10347800DE6ADE6ADD6A0001682BEBD7608C000E1D
:10348800636E6098609C0CD06596000E0001C66F54
:10349800000E0001BE6F000E0001C06F000EBF6F6E
:1034A80065B6F2D7010E446E010E436E000E426EF1
:1034B800000E416E000E0101596F000E0001686F89
:1034C800020E0001686501D033D000016851020D79
:1034D800C90EF324D96E000EF420DA6E000EDE6EEB
:1034E800000EDD6E00016851020D400EF324D96E06
:1034F800010EF420DA6E000EDE6E000EDD6E0001A5
:103508006851010DD20EF324D96E000EF420DA6E44
:10351800000EDF6E00016851010DCF0EF324D96E45
:10352800000EF420DA6E000EDF6E0001682BC8D79B
:10353800080E0001C96F040E0001CA6F160E6A6EEC
:10354800040E0401036F300E026F080E0401016FB0
:10355800040E0401006F0401008F000E5A6E000E65
:103568000001ED6F120020EE01F03650D9263750D9
:10357800DA22DF50136E13500001BF5D000EC059F0
:10358800D8A0BFC013F013500001BF5F000EC05B8E
:10359800000E126E12D01250010D380EF324D96E9F
:1035A800040EF420DA6EBBC0E1FFBCC0E2FFDFCF3F
:1035B800E7FF0001BB4BBC2B122A1350125CD8A0AA
:1035C800EAD70001BF510001C011D8B432D020EEB3
:1035D80001F03450D9263550DA22080EDF6E20EE7D
:1035E80002F03450D9263550DA22380EDE6E040E39
:1035F800DD6E36C0D9FF37C0DAFFDFBC0DD034C06E
:10360800D9FF35C0DAFF480EDF6E34C0D9FF35C0A8
:10361800DAFF000EDB8E120034C0D9FF35C0DAFFA6
:10362800080EDF6E34C0D9FF35C0DAFF000EDB8E1E
:10363800120020EE01F03450D9263550DA22080E57
:10364800DF6E20EE02F03450D9263550DA22300EE3
:10365800DE6E040EDD6E34C0D9FF35C0DAFF040E0D
:10366800DF6E34C0D9FF35C0DAFF000EDB8E0001F3
:10367800C1510001C211D8B40ED020EEC1F001D85A
:103688000AD00500FA6EDE50FD6EDE50FE6EF85070
:10369800FF6EFA5012000001BE9F4550D8A41200D8
:1036A800D5EC27F012000001D74BD82BD7C060F01B
:1036B800D8C061F0000E0001636F0A0E626FB0ECB3
:1036C8002EF00001605100016111D8A41200000120
:1036D800F883D7C060F0D8C061F0000E0001636FB6
:1036E800640E626FB0EC2EF00001605100016111B0
:1036F800D8A412000001F885D7C060F0D8C061F0E6
:10370800030E0001636FE80E626FB0EC2EF000014B
:10371800605100016111D8A412000001F887D7C0D8
:1037280060F0D8C061F00001626B636B600E00014D
:10373800646FEA0E656F000E666F000E676FD1EC5E
:1037480021F00001605100016111000162110001C6
:103758006311D8A412003C4A3D2A0001F8893CC0F4
:1037680060F03DC061F0000E0001636F3C0E626FB7
:10377800B0EC2EF00001605100016111D8A41200D4
:103788000001F88B3CC060F03DC061F0020E000102
:10379800636FD00E626FB0EC2EF000016051000133
:1037A8006111D8A412000001F88D3CC060F03DC042
:1037B80061F0050E0001636FA00E626FB0EC2EF091
:1037C8000001605100016111D8A412000001F88FB6
:1037D800000E0001D86F000ED76F000E3D6E000E70
:1037E8003C6E1200800E04013019D8A41200C00EDD
:1037F8000001C66F89D0520E0001C36F790E000117
:10380800C46F000E0001C86F120EC76F12000401CA
:103818003251D8A444D004013251020DA50EF3242C
:10382800F66E750EF420F76E0900F5CFC3F00A00A6
:10383800F5CFC4F0020E0001C325016E000E000191
:10384800C421026E01C0F6FF02C0F7FFF86A070E36
:10385800F76403D00800F55005D0F6CFE9FFF7CF9D
:10386800EAFFEF500001C76F030E0001C325016E88
:10387800000E0001C421026E01C0F6FF02C0F7FF6E
:10388800F86A070EF76403D00800F55005D0F6CFA4
:10389800E9FFF7CFEAFFEF500001C86F1200000EF2
:1038A8000001C66F1200030E0401326125D0040125
:1038B8003251020D9F0EF324F66E750EF420F76E4A
:1038C8000900F5CFC3F00A00F5CFC4F0C3C0F6FF76
:1038D800C4C0F7FFF86A070EF76403D00800F55074
:1038E80005D0F6CFE9FFF7CFEAFFEF50016E0150A0
:1038F8000001C76FC86B1200000E0001C66F1200EE
:10390800000E0001C66F120004013351010AD8B439
:1039180072D7030AD8B47BD7010AD8B4C4D7F0D772
:10392800A394000E676E000E656E000E6A6E6B0E35
:10393800016E0F0E026E000E046E000E036E000E76
:10394800066E020E056EE3EC32F0160E626E9F0EE6
:10395800666E7B0E646E000E096E0B0E096401D054
:103968000ED00950040D000EF324D96E040EF42075
:10397800DA6EDE6ADE6ADE6ADD6A092AEED7608CF4
:10398800000E636E6098609C0CD06596000E000176
:10399800C66F000E0001BE6F000E0001C06F000E62
:1039A800BF6F65B6F2D7010E446E010E436E000E6E
:1039B800426E000E416E000E0101596F000E096E35
:1039C800020E096401D02ED00950020DC90EF3244D
:1039D800D96E000EF420DA6E000EDE6E000EDD6E7B
:1039E8000950020D400EF324D96E010EF420DA6E50
:1039F800000EDE6E000EDD6E0950010DD20EF324AE
:103A0800D96E000EF420DA6E000EDF6E0950010D3B
:103A1800CF0EF324D96E000EF420DA6E000EDF6E9E
:103A2800092ACED7080E0001C96F040E0001CA6F1B
:103A3800160E6A6E040E0401036F300E026F080E34
:103A48000401016F040E0401006F0401008F000ED1
:103A58005A6E000E0001ED6F12000001ED05D8B49A
:103A680060BA07D0000E656E64806488020E00019B
:103A7800ED6F65B464A403D06594CBEC32F060A21A
:103A880002D0A494120065B064A007D094EC1CF096
:103A9800A384040E0001ED6F659065B864A803D097
:103AA8000EEC33F0659865AC18D064AC0ED0000EFF
:103AB8000F6E730E0E6E000E106E000E116E000E5D
:103AC800136E010E126E3EEC2FF0659C4650D8A482
:103AD80046064650D8B4D5EC27F065BA64AA02D099
:103AE80021EC31F065B264A20FD07F0E0F6E0E6824
:103AF800000E106E000E116E000E136E010E126E87
:103B08003EEC2FF0000E676E040E0001ED6102D04E
:103B1800A494120064A639D0000E1F6E030E1F6411
:103B280001D033D065A631D061CF59F05930E83291
:103B3800E8320F0B486E659659B407D04850010D0E
:103B4800CF0EF324D96E000E06D04850010DD20EC8
:103B5800F324D96E000EF420DA6E0001DF704850AD
:103B6800D8A403D00CEC27F00ED0000E0F6E720E06
:103B78000E6E590E106E000E116E000E136E000EB2
:103B8800126E3EEC2FF01F2AC9D7A49412006FECD6
:103B980033F09AEC32F00BEC1AF080EC32F08A8AAF
:103BA800000E0001616F320E606FD9EC31F08A9A15
:103BB800010E0001616FF40E606FD9EC31F0F28CE8
:103BC800F28E61EC2CF0000E0001616F140E606F34
:103BD800D9EC31F028EC34F0000E0001616F140EBE
:103BE800606FD9EC31F0000E00EC34F00001F66F94
:103BF800550E0001F619D8B408D0A1EC2DF0550ED9
:103C08000001606F000E63EC31F0000E0001F76FE9
:103C1800000E61EC34F0AEEC33F0230E00016C6F53
:103C28007D0E00016D6F000E00016E6F000E000129
:103C38006F6F11EC2EF0F40E00016C6F7D0E000119
:103C48006D6F000E00016E6F010E00016F6F11ECB9
:103C58002EF0150E00016C6F7D0E00016D6F000EC9
:103C680000016E6F030E00016F6F11EC2EF0030E52
:103C78000001616FE80E606FD9EC31F015D0FFD705
:103C8800A5EC26F0010E0001F76F010E66EC34F08A
:103C98000BD01CEC14F0040AD8A406D0000E0001C6
:103CA800F76F000E61EC34F00001F751000AD8B448
:103CB800E7D7010AD8B4EDD7E2D7000162356335FA
:103CC8000001696F00016951D8A40AD0000E0001F3
:103CD800606F000E616F000E626F000E636F12005E
:103CE80060C064F061C065F062C066F063C067F0F0
:103CF800200E06D00001D8906733663365336433ED
:103D0800E82EF8D7000164510001686F0001628F46
:103D1800FF0E00016017FF0E6117FF0E6217000EFD
:103D28006317960E0001695F000169AF1AD00001A0
:103D38006951800A970FD8B00AD0000E0001606F51
:103D4800000E616F000E626F000E636F12000001BB
:103D5800D89063336233613360330001693FF7D72A
:103D68001BD01F0E0001696512D0000E0001606FA4
:103D7800000E616F000E626F000E636F120000018B
:103D8800D8906037613762376337000169070001EF
:103D980069510001D8A4F3D7000168510001D8B4D3
:103DA80009D00001631F621F611F606D000E61234F
:103DB8006223632360C060F061C061F062C062F09A
:103DC80063C063F012001F0E0001ED65120060B2BF
:103DD80012000001E8510001D8A417D0800E00019C
:103DE800676F020E0001686F400E0001696FC1EC39
:103DF80022F00001E76F0001E751D8B406D0010EA8
:103E08000001E86F000E0001E66F0001E8510001B3
:103E1800D8A4ACA217D00001E651010D800EF324FE
:103E2800D96E020EF420DA6EDF50DCEC30F00001BF
:103E3800E62B0001E7510001E619D8A403D0000ED3
:103E48000001E86F0001F551D8B429D07EEC34F0B8
:103E58000009D8B424D03F0E0001E96120D000F059
:103E6800B7EC30F000016D6F0001E951010D800ED3
:103E7800F324D96E020EF420DA6E6DC0DFFF000164
:103E8800E92B0001E951010D800EF324D96E020ED1
:103E9800F420DA6E000EDF6E000E0001EA6F0001FA
:103EA800EC51D8A413D00001E951D8B40FD0800E3A
:103EB8000001606F020E0001616FE9C062F05DEC05
:103EC80033F081EC34F0000E0001E96F8EEC18F04D
:103ED8001200010E0001736FF40E726F000E0001E4
:103EE800746FAEEC33F0C00E00016C6F7D0E0001F4
:103EF8006D6F000E00016E6F000E00016F6F11EC08
:103F08002EF081A202D081B00FD0610E00016C6F3B
:103F18007E0E00016D6F000E00016E6F030E000132
:103F28006F6F11EC2EF046D0E70E00016C6F7D0E1E
:103F380000016D6F000E00016E6F010E00016F6FC2
:103F480011EC2EF037D081B213D0CD0E00016C6F7A
:103F58007D0E00016D6F000E00016E6F020E0001F4
:103F68006F6F11EC2EF000017451080F0001746F8F
:103F780081B013D0DA0E00016C6F7D0E00016D6FF9
:103F8800000E00016E6F030E00016F6F11EC2EF032
:103F980000017451800F0001746F880E00017419BC
:103FA800D8B412009C0E0001716FD70EE82EFED710
:103FB800712FFCD700017207D8A07307000172297E
:103FC800C2E100017329D8B41200BDD70001646FA3
:103FD800FA0E0001636F580EE82EFED7632FFCD748
:103FE80000F0FA0E0001636F580EE82EFED7632F1B
:103FF800FCD700F0FA0E0001636F580EE82EFED7CA
:10400800632FFCD700F0000164510001D8B42CD014
:10401800B70E0001616F790E0001626FB3EC32F0E8
:10402800FA0E0001636F580EE82EFED7632FFCD7F7
:1040380000F0FA0E0001636F580EE82EFED7632FCA
:10404800FCD700F0FA0E0001636F580EE82EFED779
:10405800632FFCD700F0D10E0001616F790E0001CB
:10406800626FB3EC32F01200830E0001616F790EBB
:104078000001626FB3EC32F0FA0E0001636F580E64
:10408800E82EFED7632FFCD700F0FA0E0001636F0D
:10409800580EE82EFED7632FFCD700F0FA0E000169
:1040A800636F580EE82EFED7632FFCD700F09D0EE5
:1040B8000001616F790E0001626FB3EC32F01200FB
:1040C80060980001C6BF39D00001BEAF0BD0020E08
:1040D8004A6E4150D8B439EC2BF0000E436E000EF6
:1040E800446E120020EE01F03450D9263550DA2201
:1040F800080EDF6E20EE02F03450D9263550DA2251
:10410800300EDE6E040EDD6E34C0D9FF35C0DAFF26
:104118000C0EDF6E34C0D9FF35C0DAFF000EDB8E1F
:10412800C9C0D9FFCAC0DAFF040EDF6EC9C0D9FF03
:10413800CAC0DAFF000EDB8E1200040130AF10D0C7
:10414800010E4A6E4250D8B439EC2BF0000E436E83
:10415800000E446E4550D8A41200D5EC27F012008A
:10416800020E4A6E20EE01F03450D9263550DA227C
:10417800080EDF6E20EE02F03450D9263550DA22D0
:10418800300EDE6E040EDD6E34C0D9FF35C0DAFFA6
:10419800040EDF6E34C0D9FF35C0DAFF000EDB8EA7
:1041A800000E436E000E446E4550D8A41200D5ECA4
:1041B80027F0120004013039E832030B0009D8A4B3
:1041C800120050D00001C68F080E0001ED6F1200DA
:1041D800F6EC1BF01200AAEC23F012005A0E0001B4
:1041E800C36F000E0001C46F0001C681010E0001FB
:1041F800C76F0001C68F120037EC28F012009BEC45
:1042080015F0120004013451010D570EF32400017A
:10421800C36F000EF4200001C46F0001C681010EB7
:104228000001C76F0001C68F12000001C68F04018C
:104238003451010D570EF324D96E000EF420DA6EB6
:1042480032C4DFFF1200000E0F6E020E0E6E000E5B
:10425800106E000E116E000E136E000E126E3EEC04
:104268002FF0120004013151000AD8B4C5D7010A51
:10427800D8B4C5D7020AD8B4C2D7060AD8B4A2D7C8
:10428800030AD8B4A5D7010AD8B4DDD70F0AD8B421
:10429800A5D7010AD8B49FD7030AD8B4B3D7010A5F
:1042A800D8B4C3D7070A12000001A66FCD0E0001CB
:1042B800786FCC0E796F4C0E7A6F400E7B6F0001D1
:1042C800A6510001606F616B626B636B000EDEECE0
:1042D80016F060C074F061C075F062C076F063C01B
:1042E80077F0E9EC0FF074C08DF075C08EF076C0F1
:1042F8008FF077C090F0000E0001916F000E926F62
:10430800800E936F440E946F3CEC12F08DC0A8F0B1
:104318008EC0A9F08FC0AAF090C0ABF0000E0001CB
:10432800646F000E656F000E666FBF0E676FA8C0E2
:1043380060F0A9C061F0AAC062F0ABC063F095EC70
:104348000DF060C074F061C075F062C076F063C0B3
:1043580077F0000E0001786F000E796FC80E7A6F43
:10436800420E7B6FE9EC0FF074C0A8F075C0A9F09D
:1043780076C0AAF077C0ABF0A8C060F0A9C061F021
:10438800AAC062F0ABC063F061EC1EF0000160519E
:104398000001A76F0001A7511200000E0001696F0C
:1043A800000163AF0CD00001631F621F611F606DC5
:1043B800000E612362236323010E0001696F00016F
:1043C80067AF09D00001671F661F651F646D000E87
:1043D800652366236723000164510001651100010C
:1043E800661100016711D8B43AD0010E0001686F58
:1043F80008D00001D8906437653766376737000101
:10440800682B000167AFF5D7000164510001605DBA
:1044180000016551000161590001665100016259AE
:104428000001675100016359D8A010D00001645100
:104438000001605F000165510001615B0001665188
:104448000001625B000167510001635B0001D890C5
:1044580067336633653364330001682FD5D70001AD
:1044680069510001D8B409D00001631F621F611FA0
:10447800606D000E61236223632360C060F061C039
:1044880061F062C062F063C063F01200C9C0D9FF76
:10449800CAC0DAFF0001000EDFBC010E126E040E66
:1044A8000001C91B080E0001ED19D8A40CD00401A5
:1044B80032517F0B636E6350D8B402D0100E01D016
:1044C800040E0001ED6F4A04D8A43BD0000120EE91
:1044D80002F0C951D926CA51DA22380EDE6E040E0E
:1044E800DD6E8CEC24F0020E4B18D8A40DD0C9C098
:1044F800D9FFCAC0DAFF040EDF6EC9C0D9FFCAC02F
:10450800DAFF000EDB8E12001250D8A40DD0C9C0FD
:10451800D9FFCAC0DAFF480EDF6EC9C0D9FFCAC0CA
:10452800DAFF000EDB8E1200C9C0D9FFCAC0DAFF5D
:10453800080EDF6EC9C0D9FFCAC0DAFF000EDB8ED5
:1045480012000001BEAF16D00001C1510001C21116
:10455800D8B40ED020EEC1F001D80AD00500FA6E0A
:10456800DE50FD6EDE50FE6EF850FF6EFA501200FF
:104578000001BE9F000E4A6E1200000E0001E06F9F
:104588000001D5510001D611D8B413D0D5C0D9FF38
:10459800D6C0DAFF0001DFAE04D000016A6B6A2BD7
:1045A80002D000016A6B00016A5100016B6F6C6BED
:1045B80005D0000E00016C6F000E6B6F00016B518F
:1045C80000016C11D8A44BD0000120EE01F0D551A8
:1045D800D926D651DA2200016951DE5CD8B00AD05A
:1045E800000120EE01F0D551D926D651DA22DF504C
:1045F8000001696F000E0001E06F18D00001E05162
:10460800010D400EF324D96E050EF420DA6E000178
:10461800E051010DF35000016725E16EF4500001EF
:104628006821E26EDFCFE7FF0001E02B000169514E
:104638000001E05DD8A0E2D7000E0001606F400ED7
:104648000001616F050E0001626F400E0001636F8B
:10465800020E67EC25F060C0D5F061C0D6F000010D
:10466800E0511200000E00016E6F81A0FED723EC0E
:1046780033F0010E6BEC34F0C290F29EF29EF29C85
:104688008D94A0920F015B81A08CF086F2888784BC
:10469800F286000E81B2010E00016E6F000E81B02D
:1046A800010E00016E6F000E82B4010E00016E6FE4
:1046B8000001FA51D8A4D180F290F292F090A19C16
:1046C80000F0030000F0D1901EEC30F0F296F09666
:1046D800F2988794A09CF28EF3EC2FF0F2A0F2B23D
:1046E80004D0F0B002D0A1AC12D0F290F292F090C7
:1046F800010E00016E6F000E6BEC34F09AEC32F094
:104708008D84FB0EB36E500EB26EA08208D00A0ED6
:104718000001F06F000E00016E6F8D94A0920F01E2
:104728005B9161EC2CF0000E0001616F280E606F48
:10473800D9EC31F061EC2CF0000E0001616F280E0D
:10474800606FD9EC31F000016E5112000001C68F84
:104758006B0E016E0F0E026E000E046E000E036EDD
:10476800000E066E020E056EE3EC32F0000E016ECE
:10477800040E026E000E046E000E036E000E066E2E
:10478800300E056EE3EC32F0608C000E166E020EF1
:10479800166401D016D01650010DD20EF324D96E2E
:1047A800000EF420DA6E000EDF6E1650010DCF0EEB
:1047B800F324D96E000EF420DA6E000EDF6E162A8E
:1047C800E6D7570E016E000E026E000E046E000E44
:1047D800036E000E066E020E056EE3EC32F0609C6E
:1047E800080E0001C96F040E0001CA6F000E366E74
:1047F800040E376E36C034F037C035F032C45AF084
:104808005A50D8A404D0100E0001ED6F1200000E0B
:104818000F6E010E0E6E5A0E106E000E116E000E07
:10482800136E010E126E3EEC2FF0200E0001ED6F9C
:1048380012000001696F000166510001676F686B23
:10484800020E00016727000E6823BA0E00016725D3
:10485800D96E010E00016821DA6E69C060F00001AE
:10486800616B000E0001636F0A0E626F48EC2AF05C
:1048780000016051300FDF6E0A0E0001606F000109
:10488800695110EC2FF00001696F000166510001B9
:10489800676F686B010E00016727000E6823BA0E68
:1048A80000016725D96E010E00016821DA6E69C022
:1048B80060F00001616B000E0001636F0A0E626F09
:1048C80048EC2AF000016051300FDF6E0A0E00013B
:1048D800606F0001695110EC2FF00001696F000151
:1048E8006651010DBA0EF324D96E010EF420DA6E6A
:1048F80069C060F00001616B000E0001636F0A0E71
:10490800626F48EC2AF000016051300FDF6E120030
:10491800080E016E0001C85111E1080E0001C75DC3
:10492800D8B00CD0C7C001F04B50D8A402D0010EAB
:1049380004D04B04D8A402D0020E4B6E01500001E3
:10494800C75F000EC85B000120EE01F0C951D926EF
:10495800CA51DA2201C0DFFF380E0101546F040E7C
:104968000101556F0001C6A11DD03CD0C3C0F6FFA0
:10497800C4C0F7FFF86A54C1D9FF55C1DAFF070E62
:10498800F76403D00800F55005D0F6CFE9FFF7CF5C
:10499800EAFFEF50DF6E0001C34BC42B0101544BFB
:1049A800552B01060150D8B41200E0D7C3C0F6FF5A
:1049B800C4C0F7FFF86A54C1D9FF55C1DAFF070E22
:1049C800F76403D00800F55005D0F6CFE9FFF7CF1C
:1049D800EAFFEF50DF6E0001C34BC42B0101544BBB
:1049E800552B01060150D8B41200E0D70BD061C096
:1049F800F6FF62C0F7FF0800F550DCEC30F000016C
:104A0800614B622B61C0F6FF62C0F7FF0800F550EA
:104A18000009D8A4ECD7000E0001676F020E000150
:104A2800676501D011D000016751010DF3500001F5
:104A38006325D96EF45000016421DA6EDF50DCEC96
:104A480030F00001672BEAD7000120EE03F0635134
:104A5800D9266451DA22DF50DCEC30F0040E000174
:104A6800686F28D000016851010DF35000016325DB
:104A7800D96EF45000016421DA6EDF500001666FD0
:104A8800000166390F0BBCEC31F0DCEC30F00001B2
:104A98006851010DF35000016325D96EF4500001EF
:104AA8006421DA6EDF500F0BBCEC31F0DCEC30F037
:104AB8000001682B000165510001685DD8A0D2D7BC
:104AC8004AEC34F012000001646F000160510001EB
:104AD800D8B408D000016451020DC90EF324D96E70
:104AE800000E07D000016451020D400EF324D96E68
:104AF800010EF420DA6EDECF65F0DDCF66F000013E
:104B0800655100016611D8A407D0000E0001606F3E
:104B1800000E0001616F1200000120EE02F06551E5
:104B2800D9266651DA2261C0DEFF62C0DDFF0001CE
:104B380020EE01F06551D9266651DA2263C0DFFF05
:104B480065C0D9FF66C0DAFF400EDF1665C0D9FF21
:104B580066C0DAFF000EDB8665C0D9FF66C0DAFFE3
:104B6800000EDB8E000160510001D8B408D00001AE
:104B78006451020DC90EF324D96E000E07D000014E
:104B88006451020D400EF324D96E010EF420DA6E42
:104B9800040EDF1A65C060F066C061F01200000103
:104BA8007A6F000E0001736F00017AAF03D0010E17
:104BB8000001736F00017A517F0B00017A6F7AC090
:104BC80060F00001616B000E0001636F0A0E626FF6
:104BD80048EC2AF000016051300F0001766F0A0E90
:104BE8000001606F00017A5110EC2FF000017A6F1C
:104BF8007AC060F00001616B000E0001636F0A0E5D
:104C0800626F48EC2AF000016051300F0001756FA7
:104C18000A0E0001606F00017A5110EC2FF00001BC
:104C28007A6F7AC060F00001616B000E0001636F5B
:104C38000A0E626F48EC2AF000016051300F000143
:104C4800746F000173510001D8B403D02D0E000118
:104C5800746F000E0001776F740E00016C6F000E08
:104C680000016D6F71C06EF072C06FF011EC2EF024
:104C78001200040130511F0BE806D8A412000401E9
:104C88003039E832030BE806D8A412000401345185
:104C9800D8B445D004013405D8A4120040D0D80EA9
:104CA8000001C36F010E0001C46F000E0001C86F40
:104CB800080EC76F0001C6810001C68F1200D80E0A
:104CC8000001C36F010E0001C46F0001C68F1200FE
:104CD80036C4BFF037C4C0F0CE0E0001BB6F010E62
:104CE8000001BC6F340E0001C16F5F0E0001C26F7E
:104CF8000001BE8F1200E00E0001C36F010E00011B
:104D0800C46F000E0001C86F070EC76FC10E000107
:104D1800C66F120032C458F10001C68F1200040198
:104D28003151000AD8B4BBD7010AD8B4C8D7210A70
:104D3800D8B4CED7010AD8B4DED7030AD8A4120053
:104D4800E9D74AD0FFD7AEEC33F0000E00016C6F04
:104D58007F0E00016D6F010E00016E6F000E0001E5
:104D68006F6F11EC2EF0510E00016C6F7F0E000179
:104D78006D6F020E00016E6F010E00016F6F11EC76
:104D88002EF0010E00016C6F7E0E00016D6F000E9B
:104D980000016E6F020E00016F6F11EC2EF0010E14
:104DA80006D0200E0001ED6101D022D0020E0001D4
:104DB800EB6F1ED0E7EC1EF0030E0001716F67EC7D
:104DC8002DF00001716F030E00017119D8B410D0D5
:104DD800020E0001F96F0CD00001EB51000AD8B4A3
:104DE800B2D7010AD8B4DDD7030AD8B4E3D7AAD713
:104DF80080A004D00001F951D8B4EED700F0020E1B
:104E08000001F919D8B41200000E0001F96F120060
:104E18002D0E466E59C01CF0FD0E1C16D8A457D096
:104E280059C01CF0D8901C323F0E1C161C50040DA3
:104E3800000EF324366E040EF420376E36C034F0BC
:104E480037C035F0040E341A36C0D9FF37C0DAFF40
:104E5800DF30E8320F0B0D0AD8A436D0000E1E6ED4
:104E6800070E1E6401D023D020EE02F03650D9265A
:104E78003750DA22DECF1CF0DDCF1DF01CC0D9FF81
:104E88001DC0DAFF1E50010D300EF324E16E040E32
:104E9800F420E26EDFCFE7FF20EE02F03650D9268D
:104EA8003750DA22DE2A000EDD221E2AD9D720EE5C
:104EB80002F03650D9263750DA22300EDE6E040E54
:104EC800DD6E1AEC2CF012006CEC2FF01200595029
:104ED800FD0B040AD8A412004AEC22F01200000EBE
:104EE8000001666F000E656F680E0001616F790E34
:104EF8000001626FB3EC32F00BD00001654B662BFA
:104F0800510E0001655DC30E00016659D8B005D089
:104F180028EC2DF00009D8B4F0D7000E0001666F18
:104F2800000E656F050E0001616F7A0E0001626F59
:104F3800B3EC32F00BD00001654B662B510E00012B
:104F4800655DC30E00016659D8B005D028EC2DF078
:104F58000009D8B4F0D7000E0001666F000E656F27
:104F6800EB0E0001616F790E0001626FB3EC32F055
:104F78000BD00001654B662B510E0001655DC30E19
:104F880000016659D8B005D028EC2DF00009D8B436
:104F9800F0D7000E0001616F640E606FD9EC31F03C
:104FA80012004450D8A41200010E446E4350D8A4F5
:104FB8001200010E436E020E4A18D8A416D0000142
:104FC80020EE01F0C951D926CA51DA22000EDF6E4F
:104FD800C9C0D9FFCAC0DAFF480EDF6EC9C0D9FF01
:104FE800CAC0DAFF000EDB8E12004A04D8A41200F1
:104FF800000E476E20EE01F03650D9263750DA22DF
:10500800080EDF6E20EE02F03650D9263750DA222D
:10501800300EDE6E040EDD6E36C0D9FF37C0DAFF03
:10502800040EDF6E36C0D9FF37C0DAFF000EDB8E04
:10503800010E476E20EE01F03450D9263550DA22A1
:10504800080EDF6E20EE02F03450D9263550DA22F1
:10505800300EDE6E040EDD6E34C0D9FF35C0DAFFC7
:10506800800EDF6E1200000E0401386F000E04017E
:10507800396F3BD00001C68F4904D8A442D004013F
:1050880038833FD00001C68F3CD00001C68F040191
:1050980034BF0BD0040134510F0B016E0150020DC7
:1050A800400EF324D96E010E0AD0040134510F0BBF
:1050B800016E0150020DC90EF324D96E000EF420C2
:1050C800DA6EDECF02F0DDCF03F002C0D9FF03C0F5
:1050D800DAFFDFAE16D002C0D9FF03C0DAFFDFA4C3
:1050E80010D0010E0401386F0CD0040130511F0B91
:1050F800000AD8B4BFD7010AD8B4C4D7030AD8B4B1
:10510800C4D70001C6AF1200380E0001C36F040EE9
:105118000001C46F0001C681020E0001C76F1200B2
:10512800056E0150D8B407D00550020DC90EF324FE
:10513800D96E000E06D00550020D400EF324D96E2C
:10514800010EF420DA6EDECF06F0DDCF07F0065050
:105158000710D8A405D0000E016E000E026E1200D2
:1051680020EE02F00650D9260750DA2202C0DEFFF0
:1051780003C0DDFF20EE01F00650D9260750DA22E1
:1051880004C0DFFF06C0D9FF07C0DAFF400EDF16F4
:1051980006C0D9FF07C0DAFF000EDB8606C0D9FFBC
:1051A80007C0DAFF000EDB8E0150D8B407D00550D7
:1051B800020DC90EF324D96E000E06D00550020D5B
:1051C800400EF324D96E010EF420DA6E040EDF1AB5
:1051D80006C001F007C002F01200000E0001606F67
:1051E800020E0001606501D00ED000016051010D72
:1051F800E70EF324D96E010EF420DA6E000EDF6E8E
:105208000001602BEDD7000E0001616F210E000137
:10521800616501D00ED000016151010D300EF324FB
:10522800D96E010EF420DA6E000EDF6E0001612BDC
:10523800EDD7000E0001626F1F0E0001626501D0FC
:105248000ED000016251010D9A0EF324D96E010EA1
:10525800F420DA6E000EDF6E0001622BEDD7000E2F
:105268000001636F130E0001636501D01200000195
:105278006351010DBA0EF324D96E010EF420DA6ED3
:10528800000EDF6E0001632BEDD7AEEC33F02D0E70
:1052980000016C6F7F0E00016D6F000E00016E6FD4
:1052A800000E00016F6F11EC2EF0560E00016C6FAE
:1052B8007D0E00016D6F000E00016E6F060E00017D
:1052C8006F6F11EC2EF0630E00016C6F7D0E000104
:1052D8006D6F000E00016E6F080E00016F6F11EC0C
:1052E8002EF0A00E00016C6F7C0E00016D6F000E99
:1052F80000016E6F010E00016F6F11EC2EF0550E5C
:1053080000016C6F7E0E00016D6F000E00016E6F64
:10531800020E00016F6F11EC2EF0360E00016C6F5B
:105328007F0E00016D6F000E00016E6F030E00010D
:105338006F6F11EC2EF012000001736F73C060F0F4
:105348000001616B000E0001636F0A0E626F48EC8A
:105358002AF000016051300F0001766F0A0E00013B
:10536800606F0001735110EC2FF00001736F73C070
:1053780060F00001616B000E0001636F0A0E626F3E
:1053880048EC2AF000016051300F0001756F0A0ED9
:105398000001606F0001735110EC2FF00001736F72
:1053A80073C060F00001616B000E0001636F0A0EAC
:1053B800626F48EC2AF000016051300F0001746FF1
:1053C800000E0001776F740E00016C6F000E000173
:1053D8006D6F71C06EF072C06FF011EC2EF012009C
:1053E80000016A6F00016351C8EC33F0000162519B
:1053F800080DF350040FA0EC33F0000E00016B6FA2
:10540800070E00016B6501D0120000016B51010D00
:10541800000E0001646FFF0E0001656F00016A5104
:105428000001666F676B0001D89066376737000127
:10543800D890663767370001D8906637673700011C
:105448006451000166270001655100016723EAC124
:1054580068F0EBC169F0000166510001682700019E
:10546800675100016923F35000016827F4500001D7
:10547800692368C0F6FF69C0F7FF0800F550DFEC44
:1054880033F000016B2BBCD7000E0001656F0001E3
:1054980061AF08D00001606D611FD8B0612B010EAB
:1054A8000001656F000163AF05D00001626D631FE5
:1054B800D8B0632B0001625100016311D8B426D023
:1054C800010E0001646F06D00001D890623763377F
:1054D8000001642B000163AFF7D70001625100019E
:1054E800605D0001635100016159D8A008D0000136
:1054F80062510001605F000163510001615B0001BE
:10550800D890633362330001642FE7D700016551F7
:105518000001D8B405D00001606D611FD8B0612BBF
:1055280060C060F061C061F012003FD060C0D9FF78
:1055380061C0DAFFDF50D8B411D060C0D9FF61C0B4
:10554800DAFFDF500001666F62C0F6FF63C0F7FF45
:105558000800F55000016619D8B421D062C0F6FFE2
:1055680063C0F7FF0800F5500001666F676B000124
:10557800661F671F664B672B60C0D9FF61C0DAFFE3
:10558800DF500001686F00016851000166250001C5
:10559800606F000E000167210001616F12000001B9
:1055A800604B612B0001624B632B00016407D8A09C
:1055B800650700016429BAE100016529D8A4B6D7B6
:1055C800000E0001616F000E606F1200000E0001F6
:1055D8006D6F000E6C6F000E00016E6F030E000100
:1055E8006E6501D03DD067C0D9FF68C0DAFFDF50D3
:1055F800D8B436D000016E510001D8B40FD06CC0B9
:1056080060F06DC061F0000E0001636F0A0E626FFA
:105618004BEC32F060C06CF061C06DF067C0D9FF30
:1056280068C0DAFFDF500001696F000169510001AD
:105638006C2500016A6F000E00016D2100016B6F7F
:10564800D00E00016A2500016C6FFF0E00016B216E
:1056580000016D6F0001674B682B00016E2BBED7F0
:105668006CC067F06DC068F01200000E426E000E4C
:10567800416E020E4A18D8A41FD020EE01F0345013
:10568800D9263550DA22080EDF6E20EE02F03450AB
:10569800D9263550DA22380EDE6E040EDD6E34C09F
:1056A800D9FF35C0DAFF480EDF6E34C0D9FF35C0E8
:1056B800DAFF000EDB8E12000001C7510401365DCF
:1056C8000001C85104013759D8B004D036C4C7F016
:1056D80037C4C8F08CEC24F0000120EE02F0C95168
:1056E800D926CA51DA22380EDE6E040EDD6EC9C024
:1056F800D9FFCAC0DAFF480EDF6EC9C0D9FFCAC0D9
:10570800DAFF000EDB8E1200066E000E076E040E26
:10571800086E0150026E036AD890023603360650AE
:10572800046E056AD89004360536D89004360536D6
:105738000250042603500522D89004360536D89026
:1057480004360536045007260550082207C0D9FF3D
:1057580008C0DAFFDF9E0150D8A407D00650020D1A
:10576800400EF324D96E010E06D00650020DC90E64
:10577800F324D96E000EF420DA6E07C0DEFF08C0ED
:10578800DDFF07C0D9FF08C0DAFFDF9C20EE04F078
:105798000750D9260850DA22DF8C1200200EF66E48
:1057A800690EF76E000EF86E0900F5CFEAF10900F0
:1057B800F5CFEBF1EE0EF66E680EF76E000EF86E92
:1057C80000EEF9F010EE07F00900F5CFEEFFE55016
:1057D800E150FAE11E0EF66E690EF76E000EF86ED5
:1057E8000900F5CF5BF00900F5CF5CF002EE00F0A0
:1057F800C00EEE6AE806FDE101EE00F0EA0EEE6A80
:10580800E806FDE100EEBBF03E0EEE6AE806FDE1BB
:105818005D6A00EE32F0290EEE6AE806FDE15E9060
:105828005E92000EF86E0001CBEF1DF0000E4B6E7D
:10583800000E456E000E426E000E416E000E476E61
:10584800000E4A6EC9C0D9FFCAC0DAFF7F0EDF1644
:10585800040E0001C91BC9C0D9FFCAC0DAFF7F0EF8
:10586800DF16040E0001C91B34C0D9FF35C0DAFFAA
:105878007F0EDF16000E0001C66F000E0001C86F14
:10588800000EC76F000E0001BE6F000E0001C06F52
:10589800000EBF6FDEEC20F0000E0F6E030E0E6ED2
:1058A800000E106E000E116E000E136E000E126EBA
:1058B8003EEC2FF064EC20F01200000E0001676F40
:1058C800000E0001666F000E656FAC9A8B9C000E8F
:1058D8000001616F0A0E606FD9EC31F0AC8A000EDE
:1058E8000001616F050E606FD9EC31F0550EAD6E99
:1058F800ACA2FED7FD0E0001616F7F0E0001626F42
:10590800B3EC32F0000E0001616F280E606FD9EC25
:1059180031F013D028EC2DF00009D8A40BD00001E9
:10592800654B662B890E0001655D130E00016659F3
:10593800D8A003D0010E0001676F00016751000174
:10594800D8B41200E7D7000E096E000E0A6E000EDA
:105958000B6E000E0C6E0550061007100810D8B418
:105968002AD0010E0D6E06D0D890053606360736B9
:1059780008360D2A08AEF8D7D89009360A360B36FD
:105988000C360550015C0650025807500358085061
:105998000458D8A009D00550015E0650025A075095
:1059A800035A0850045A0980D89008320732063240
:1059B80005320D2EE1D709C001F00AC002F00BC074
:1059C80003F00CC004F01200E20EEAEC33F08A8413
:1059D800040E0001626F1C0EE82EFED7622FFCD762
:1059E80000F08A94200E0001626F290EE82EFED77F
:1059F800622FFCD700D08A84100E0001626F940ECB
:105A0800E82EFED7622FFCD700F0A10EEAEC33F0A7
:105A1800C00EEAEC33F0A30EEAEC33F0070E42ECCA
:105A280034F0050E3AEC34F05B500BEC34F0000E19
:105A38001FEC34F0F80EEAEC33F0000EEAEC33F029
:105A4800AF0EEAEC33F01200000E0001616F0001A6
:105A5800F551D8B435D0000E0001626FB7EC30F0C4
:105A68000001626F0D0E00016219D8A412D0000166
:105A7800F251010D5A0EF324D96E010EF420DA6E9C
:105A8800000EDF6E010E0001616F000E0001F26F63
:105A980017D0000162510001D8B412D00A0E0001DB
:105AA8006219D8B40DD00001F251010D5A0EF32439
:105AB800D96E010EF420DA6E62C0DFFF0001F22B0E
:105AC800000161511200000E0001606F81A202D036
:105AD80081B01CD0010E01014A27000E4B234C2334
